{
  "_format": "hh-sol-artifact-1",
  "contractName": "WavePortal",
  "sourceName": "contracts/WavePortal.sol",
  "abi": [
    {
      "inputs": [],
      "stateMutability": "nonpayable",
      "type": "constructor"
    },
    {
      "inputs": [],
      "name": "getAllSenders",
      "outputs": [
        {
          "internalType": "address[]",
          "name": "",
          "type": "address[]"
        }
      ],
      "stateMutability": "view",
      "type": "function"
    },
    {
      "inputs": [],
      "name": "getTotalWaves",
      "outputs": [
        {
          "internalType": "uint256",
          "name": "",
          "type": "uint256"
        }
      ],
      "stateMutability": "view",
      "type": "function"
    },
    {
      "inputs": [],
      "name": "wave",
      "outputs": [],
      "stateMutability": "nonpayable",
      "type": "function"
    }
  ],
  "bytecode": "0x608060405234801561001057600080fd5b5061003c604051806060016040528060258152602001610b346025913961004160201b6103121760201c565b6101c4565b6100dd816040516024016100559190610142565b6040516020818303038152906040527f41304fac000000000000000000000000000000000000000000000000000000007bffffffffffffffffffffffffffffffffffffffffffffffffffffffff19166020820180517bffffffffffffffffffffffffffffffffffffffffffffffffffffffff83818316178352505050506100e060201b60201c565b50565b60008151905060006a636f6e736f6c652e6c6f679050602083016000808483855afa5050505050565b600061011482610164565b61011e818561016f565b935061012e818560208601610180565b610137816101b3565b840191505092915050565b6000602082019050818103600083015261015c8184610109565b905092915050565b600081519050919050565b600082825260208201905092915050565b60005b8381101561019e578082015181840152602081019050610183565b838111156101ad576000848401525b50505050565b6000601f19601f8301169050919050565b610961806101d36000396000f3fe608060405234801561001057600080fd5b50600436106100415760003560e01c80636fe15b441461004657806383d42b48146100505780639a2cdc081461006e575b600080fd5b61004e61008c565b005b610058610149565b604051610065919061069c565b60405180910390f35b6100766102c7565b6040516100839190610740565b60405180910390f35b600160008082825461009e91906107b0565b925050819055506001339080600181540180825580915050600190039060005260206000200160009091909190916101000a81548173ffffffffffffffffffffffffffffffffffffffff021916908373ffffffffffffffffffffffffffffffffffffffff1602179055506101476040518060400160405280600d81526020017f2573206861732077617665642100000000000000000000000000000000000000815250336103ab565b565b606061016c6040518060600160405280602d81526020016108ff602d9139610312565b60005b6001805490508110156101fc576101e9600182815481106101b9577f4e487b7100000000000000000000000000000000000000000000000000000000600052603260045260246000fd5b9060005260206000200160009054906101000a900473ffffffffffffffffffffffffffffffffffffffff16610447565b80806101f490610875565b91505061016f565b5061023b6040518060400160405280600c81526020017f456e64206f66206c697374210000000000000000000000000000000000000000815250610312565b60018054806020026020016040519081016040528092919081815260200182805480156102bd57602002820191906000526020600020905b8160009054906101000a900473ffffffffffffffffffffffffffffffffffffffff1673ffffffffffffffffffffffffffffffffffffffff1681526020019060010190808311610273575b5050505050905090565b600061030a6040518060400160405280601781526020017f5765206861766520256420746f74616c207761766573210000000000000000008152506000546104e0565b600054905090565b6103a88160405160240161032691906106be565b6040516020818303038152906040527f41304fac000000000000000000000000000000000000000000000000000000007bffffffffffffffffffffffffffffffffffffffffffffffffffffffff19166020820180517bffffffffffffffffffffffffffffffffffffffffffffffffffffffff838183161783525050505061057c565b50565b61044382826040516024016103c19291906106e0565b6040516020818303038152906040527f319af333000000000000000000000000000000000000000000000000000000007bffffffffffffffffffffffffffffffffffffffffffffffffffffffff19166020820180517bffffffffffffffffffffffffffffffffffffffffffffffffffffffff838183161783525050505061057c565b5050565b6104dd8160405160240161045b9190610681565b6040516020818303038152906040527f2c2ecbc2000000000000000000000000000000000000000000000000000000007bffffffffffffffffffffffffffffffffffffffffffffffffffffffff19166020820180517bffffffffffffffffffffffffffffffffffffffffffffffffffffffff838183161783525050505061057c565b50565b61057882826040516024016104f6929190610710565b6040516020818303038152906040527f9710a9d0000000000000000000000000000000000000000000000000000000007bffffffffffffffffffffffffffffffffffffffffffffffffffffffff19166020820180517bffffffffffffffffffffffffffffffffffffffffffffffffffffffff838183161783525050505061057c565b5050565b60008151905060006a636f6e736f6c652e6c6f679050602083016000808483855afa5050505050565b60006105b183836105bd565b60208301905092915050565b6105c681610806565b82525050565b6105d581610806565b82525050565b60006105e68261076b565b6105f0818561078e565b93506105fb8361075b565b8060005b8381101561062c57815161061388826105a5565b975061061e83610781565b9250506001810190506105ff565b5085935050505092915050565b600061064482610776565b61064e818561079f565b935061065e818560208601610842565b610667816108ed565b840191505092915050565b61067b81610838565b82525050565b600060208201905061069660008301846105cc565b92915050565b600060208201905081810360008301526106b681846105db565b905092915050565b600060208201905081810360008301526106d88184610639565b905092915050565b600060408201905081810360008301526106fa8185610639565b905061070960208301846105cc565b9392505050565b6000604082019050818103600083015261072a8185610639565b90506107396020830184610672565b9392505050565b60006020820190506107556000830184610672565b92915050565b6000819050602082019050919050565b600081519050919050565b600081519050919050565b6000602082019050919050565b600082825260208201905092915050565b600082825260208201905092915050565b60006107bb82610838565b91506107c683610838565b9250827fffffffffffffffffffffffffffffffffffffffffffffffffffffffffffffffff038211156107fb576107fa6108be565b5b828201905092915050565b600061081182610818565b9050919050565b600073ffffffffffffffffffffffffffffffffffffffff82169050919050565b6000819050919050565b60005b83811015610860578082015181840152602081019050610845565b8381111561086f576000848401525b50505050565b600061088082610838565b91507fffffffffffffffffffffffffffffffffffffffffffffffffffffffffffffffff8214156108b3576108b26108be565b5b600182019050919050565b7f4e487b7100000000000000000000000000000000000000000000000000000000600052601160045260246000fd5b6000601f19601f830116905091905056fe4865726520697320746865206c697374206f6620616c6c207468652073656e646572734164647265737365733aa264697066735822122051bee3ca502c23c37ab529b395a8155edba3de5b431a8a2b3f335e5e95bfacc664736f6c63430008040033596f20796f2c204920616d206120636f6e747261637420616e64204920616d20736d617274",
  "linkReferences": {},
  "deployedLinkReferences": {}
}